:100000006F10C02F13000000130000001300000049
:100010001300000013000000130000001300000094
:100020001300000013000000130000001300000084
:08003000130000007300100032
:100038000000000000000000080300000C0300009E
:100048000000000042120000000000000000000054
:1000580044120000461200000000000000000000EA
:1000680048120000000000004A12000000000000D2
:100078004C1200004E1200005012000052120000F4
:100088005412000056120000581200005A120000C4
:100098005C1200005E120000601200006212000094
:1000A8006412000066120000681200006A12000064
:1000B8006C1200006E120000701200007212000034
:1000C8007412000076120000781200007A12000004
:1000D8007C1200007E1200008012000082120000D4
:1000E8008412000086120000881200008A120000A4
:1000F8008C1200008E120000901200009212000074
:1001080094120000C8070000981200009A1200001C
:100118009C1200009E120000A0120000A212000013
:10012800A4120000A6120000A8120000AA120000E3
:10013800AC120000AE120000B0120000B2120000B3
:10014800B4120000B6120000B8120000BA12000083
:10015800BC120000BE120000C0120000C212000053
:10016800C4120000C6120000C8120000CA12000023
:10017800CC120000CE120000D0120000D2120000F3
:10018800D4120000D6120000D8120000DA120000C3
:10019800DC120000DE120000E0120000E212000093
:1001A800E4120000E6120000E8120000EA12000063
:1001B800EC120000EE120000F0120000F212000033
:1001C800F4120000F6120000F8120000FA12000003
:1001D8000000000000000000000000000000000017
:1001E8000000000000000000000000000000000007
:0801F8000000000000000000FF
:10020000397101436EC619A0397141536AC866CA73
:1002100062CC5ECE19A0397101535AD056D252D455
:100220004ED64AD826DA22DC06DE330161408282CD
:1002300041114AC026C222C406C68282B24D410183
:10024000024D924C224CB24B4101024B924A224A3F
:10025000B2494101024992442244B24041018280A4
:100260003D432A876373C3029377F700BDEFADE583
:10027000937606FF3D8ABA960CC34CC30CC74CC795
:100280004107E36BD7FE11E28280B306C3408A06C2
:100290009702000096966780A6002307B700A30682
:1002A000B7002306B700A305B7002305B700A304D2
:1002B000B7002304B700A303B7002303B700A302CA
:1002C000B7002302B700A301B7002301B700A300C2
:1002D000B7002300B700828093F5F50F9396850051
:1002E000D58D93960501D58D61B79396270097021A
:1002F000000096968682E78086FA9680C1171D8F49
:100300003E96E374C3F8A5B77300203001A0EFF266
:100310003FF24111854513050004EF10A038C14795
:100320003EC6856737240140938707F07C824C00E6
:100330008D47130504803EC4EF10E004930780044A
:100340003EC64C00FD77130504807C82EF10A003AD
:10035000410109B7EFF2DFED37240140056993054C
:1003600009F013050480EF10C00E2945EF10E0528C
:1003700013050480EF10200D218193140501C18025
:100380009307000F6384F4007D5419A41305200320
:10039000EF100054930509F013050480EF10600B73
:1003A0002945EF10804F13050480EF10C00921810B
:1003B00042054181E30A95FC814513050480EF1055
:1003C000200A1545EF10C050C165938505E013055F
:1003D0000480EF10E00813050480EF10C0062181AF
:1003E0001375050F631495007D5481A05145EF10DE
:1003F000204E13050480EF10000521811375050FB1
:10040000E30495FE13050480EF10E00321811375CA
:10041000E50F9307E00B21446309F50063ECA71691
:100420009307E0071144E311F5FCB724014081452F
:1004300013850480EF10C0021545EF106049C165B7
:10044000938505D013850480EF1080011385048007
:10045000EF00707F21811375050F1309000F6302F0
:1004600025055145EF10C04613850480EF00B07D8F
:1004700021811375050F6306250313850480EF00A2
:10048000907C21811375D50F9307D00B1D44630A0F
:10049000F50063EAA7109307D0070D446303F50046
:1004A0007D54B7240140814513850480EF00507BC3
:1004B0001545EF10E041C165938505B013850480B3
:1004C000EF00107A13850480EF00F0772181137517
:1004D000050F1309000F630225055145EF10403F3A
:1004E00013850480EF00307621811375050F6306B4
:1004F000250313850480EF00107521811375B50F56
:100500009307B00B1944630AF50063E7A70A930742
:10051000B00709446303F5007D54B72401408145C9
:1005200013850480EF00D0731545EF10603ABD6568
:100530009385057013850480EF0090721385048005
:10054000EF00707021811375050F1309000F63010F
:1005500025055145EF10C03713850480EF00B06EBC
:1005600021811375050F6305250313850480EF00B2
:10057000906D21811375750F9307700B15446309F6
:10058000F50063E4A704930770070544E31EF5DE56
:100590002285C9B19307E00D3144E308F5E89307DC
:1005A000E00E414449B59307D00D2D44E30BF5EE21
:1005B0009307D00E3D44DDB59307B00D2944E30EFB
:1005C000F5F49307B00E3944B1B79307700D254485
:1005D000E300F5FC9307700E35444DBFEFF25FC5A5
:1005E000411185452A841305000202C202C402C6D5
:1005F000EF10400BF9477C823715014091473EC60A
:100600004C008D47130505403EC4EF00D057B1475D
:1006100063E0870289679387C74A0A043E941C40B7
:10062000828737150140F94513050540EF007062D8
:1006300041010DB199477C8237140140C1473EC644
:100640004C008D47130504403EC4EF00D05389454C
:1006500013050440EF00B05F914525A099477C82C7
:1006600037140140C1473EC64C008D471305044076
:100670003EC4EF005051914513050440EF00305D3A
:100680008945130504405DB7A9477C8237140140B2
:10069000C1473EC64C008D47130504403EC4EF00E1
:1006A000904E894513050440EF00705AA145D1BF13
:1006B000A9477C8237140140C1473EC64C008D4794
:1006C000130504403EC4EF00104CA14575B7C9475F
:1006D0007C8237140140C1473EC64C008D4713054C
:1006E00004403EC4EF00304A894513050440EF0042
:1006F0001056C14579B7C9477C8237140140C147BC
:100700003EC64C008D47130504403EC4EF00B04781
:10071000C1459DB7B1477C8237140140C1473EC6F1
:100720004C008D47130504403EC4EF00D045914571
:1007300095BFB1477C8237140140C1473EC64C008B
:100740008D47130504403EC4EF00F043A14509B7AF
:10075000D1477C8237140140C1473EC64C008D47CB
:10076000130504403EC4EF0010429145BDBFD14780
:100770007C8237140140C1473EC64C008D471305AB
:1007800004403EC4EF003040C145D9B5E1477C820A
:1007900037140140C1473EC64C008D471305044045
:1007A0003EC4EF00503EA14589B7E1477C82371433
:1007B0000140C1473EC64C008D47130504403EC46E
:1007C000EF00703CC145F9BD411122C637440140DC
:1007D000930550521305048026C4EF10A005630151
:1007E000050E13050480EF10C00383C781811387B2
:1007F0004186BA9788A31823A94793844186138416
:100800008181631EF700138781821C23230004006B
:1008100093C7F7FF93F7F70F1CA3C5EBF52B9820B1
:10082000AD476316F700EF00A06223000400982094
:10083000B1476316F700EF006063230004009820BF
:10084000B5476312F702EF00206437070020130753
:1008500007071C23AD46850793F7F70F63E9F606F4
:100860001CA3230004009820B9476312F702EF008D
:10087000606337070020130707071C238946FD170D
:1008800093F7F70F63F7F6041CA3230004009C20E2
:1008900089461387F7FC1377F70F63E5E600182006
:1008A000050718A01820A5466317D7029306100362
:1008B0006393D70285471CA0A384F182238D018016
:1008C0003244A244410173002030AD2389BF14A3F8
:1008D00049BF8D4755BF26978346F7FF130710067C
:1008E000639CE60013072003E39CE7FC85471CA0FC
:1008F0000947A384E182D9B71820BA9483C6F4FFCC
:1009000013072006E39EE6FA13073003E39AE7FA9B
:1009100085471CA00D47F1BFEFF29F91411185451E
:10092000114502C202C402C6EF00D05785477C823F
:1009300037150140C1473EC64C008D471305058061
:100940003EC4EF00502441016FF0DF90EFF25F8E64
:10095000411185451305000402C202C402C6EF001E
:1009600070549D47372401407C82C1473EC64C00ED
:100970008D47130504803EC4EF00F020130504806A
:100980008545EF00102D130504808945EF00302CBC
:10099000914513050480EF00902B41016FF09F8B70
:1009A000EFF21F8659710945EF00D02BEF00506C14
:1009B000716513050520EF001075EF102000A93FA9
:1009C0007137EF008063EF002078EF00E05EEFF01A
:1009D0001F941305401FEF00506C014A0149054662
:1009E000054B138441869389C183371501408545A2
:1009F00013050580EF003026130640068145680088
:100A0000EFF01F8693869182902205459384A18101
:100A10006310A60E3C2018305030A207BA97383029
:100A2000238006004207BA975820A38D01806207F1
:100A3000BA9723A0F18278202207329770304206BD
:100A4000329710246206329723A2E1826399E70865
:100A5000D9E723800400238C018013052003EF00D5
:100A600030679C2005476393E722EF00205C138CDE
:100A7000B18183470C0093067002938C0182138727
:100A8000418263E7F61883A50C000843EF00205865
:100A9000131905011359090113052003EF005063D1
:100AA00083470C0085072300FC00B72500004A8619
:100AB0009385054E6800EF00307B6800EF002071E1
:100AC0001305F00FEF00207483A70C003147636615
:100AD000F71A4A85213675A20146014B39B7B70787
:100AE000002003C5070789455D2185479CA0B5B750
:100AF00089476310F60C3C2018305030A207BA9793
:100B00003830238006004207BA975820A38D018011
:100B10006207BA9723A0F1827820220732977030BB
:100B20004206329710246206329723A2E182639A2A
:100B3000E70081EB23800400238C0180A38C0180DB
:100B40000DB7238E0180A54C138CC181094DB70DC3
:100B5000002083460C00E3E6DCF08A06A296883289
:100B6000B822AC32D022B366E500CD8ED18EE38AB6
:100B700006EE83C6918193178700AA97C205AE97A8
:100B80006206139726004E97B2971CC31387918174
:100B90006373FA003E8A03C50D078506894514A3D1
:100BA0002380A401ED2683470C0085072300FC0069
:100BB0004DB78D47E317F6EA3C2018304C30A207BA
:100BC000BA973830238006004207BA975820620748
:100BD000BA9723A0F182782022072E976C30C205A5
:100BE0002E970C24E2052E9723A2E182E39BE7E6F1
:100BF00091E723800400238C0180A5B5E393A7E649
:100C0000B707002003C50707894590A0492691BD75
:100C1000938787FD93F7F70FCD4663E3F60283A52D
:100C20000C000843ED2683470C001319050113053A
:100C30002003938797FD135909013385A702B9BD96
:100C400023800400B72401408945138504802320B4
:100C5000070023A00C00EF00C07F1305C012EF00B7
:100C60003047138504808945EF00607EB707002078
:100C700083C507070945FD240DBD35470145E39BA5
:100C8000E7E4E31B0BE40546054B85B30947639B8B
:100C9000E70C692E138CB18183470C009306700218
:100CA0001387918163EAF6040C230145FD1585261F
:100CB0001375F50F0A054E9503590500130520031A
:100CC000EF00104183470C0085072300FC00B72587
:100CD00000004A869385054F6800EF00F0586800D1
:100CE000EF00E04E1305F00FEF00E0519307FAFF1D
:100CF0002D47E368F7F8F1BB938787FD93F7F70F6C
:100D0000CD4663E5F6020C230145FD150926137552
:100D1000F50F83470C000A054E950359050093878C
:100D200097FD130520033385A70259BF23800400D4
:100D3000B724014089451385048023000700EF0094
:100D400040711305C012EF00B03889451385048047
:100D5000EF00E06FB707002083C507070945014A88
:100D60001124B5B70D47E39EE7F0EFF0AFDE2A8C14
:100D70000145EFF0BF869307FCFF93F7F70F2D4770
:100D8000E361F7F0137CFC0FB725000062869385C2
:100D90004550680023800400A3000400EF00D04CFD
:100DA000680035211305F00FB9296285EFF01F8324
:100DB000B7240140138504808545EF0080691385C1
:100DC00004809145EF00A068894513850480EF00F9
:100DD00040681305A00FEF00B02F138504808945EC
:100DE000EF00E066B707002083C5070709459D2A85
:100DF00049BDEFF2EFC337540040AA8513050480C4
:100E0000EF00B02113040480930500082285EF0051
:100E1000D0217DD96FF00FC4EFF28FC11305A00A66
:100E2000C93F0945F9370145E9371305C00AD137EC
:100E30006FF04FC2EFF2CFBF1305A00A5D3F0D4523
:100E40004D3F01457D371305D00A65376FF08FC0E0
:100E5000EFF20FBE1305A00A693F1545593F014542
:100E6000493F1305F00A71376FF0CFBEEFF24FBC68
:100E70001305A00ABD3F1945AD3F01459D3F130530
:100E8000000B853F6FF00FBDEFF28FBA1305A00A7C
:100E90008D375145B93F0145A93F1305E00B913FFF
:100EA0006FF04FBBEFF2CFB81305A00A9937554545
:100EB000893701453D3F1305F00B253F6FF08FB992
:100EC000EFF20FB72A841305A00A25374D451537D1
:100ED00005450537AD4763EE8700896793878751DE
:100EE0000A043E941C408287214521371305600C7B
:100EF00009376FF02FB62945ED3D1305800CCDBFA6
:100F00003145C53D1305A00CE5B73945DD35130561
:100F1000C00CF9BF4145F13D1305E00CD1BF494577
:100F2000C93D1305000DE9B75145E1351305200D05
:100F3000C1B759457D3D1305400D5DBF6145553D28
:100F40001305600D75B769456D351305800D4DB7F7
:100F5000714545351305A00D61BF7945593D130510
:100F6000C00D79B7EFF2CFAC41112A8463F585004B
:100F700041016FF02FAE22852EC699371305800CE4
:100F8000EF00101505041374F40FB245C5B7EFF266
:100F90002FAA41112A8463E5850041016FF08FABD0
:100FA00022852EC6313F1305800CEF0070127D1490
:100FB0001374F40FB245C5B7EFF28FA7A53D130523
:100FC000A00A053D614535350545253501451535F1
:100FD0001305300C393D1945E5351305A00A113DBF
:100FE0006545013D09453135014521352945113515
:100FF0001305F00CFD3B6FF0EFA5EFF26FA38545F5
:101000001305002049250545E12D6FF0AFA4EFF24F
:101010002FA241112A842EC6C525B2454101818DDA
:1010200085053375B50222956FF0CFA2EFF24FA080
:101030000545C12D75DD6FF0EFA1B717024098434C
:10104000B706FFF841111367170098C3D843370656
:101050000200758FD8C39843B706F7FEFD16758F4B
:1010600098C39843B706FCFFFD16758F98C3D84305
:10107000B70681FFFD16758FD8C39843B70600ECFD
:10108000FD16758F98C33707FF0098C723A6070280
:1010900002C402C69843C166558F98C3B716024072
:1010A00005679C42F18F3EC6A24785073EC4B24702
:1010B00081E7A247E397E7FEB71702409C431397E7
:1010C000E7006357070685473EC632478547631FDB
:1010D000F704B7170240D843B706C1FFFD16D8C3BF
:1010E000D843D8C3D84313670740D8C3D843758FB4
:1010F000D8C3D843B7061D00558FD8C39843B70649
:101100000001558F98C3984393166700E3DD06FEF0
:10111000D843B7160240719BD8C3D8431367270042
:10112000D8C32147DC42B18BE39EE7FE41018280B8
:1011300002C661BF41112AC6B24799E341018280CC
:10114000B247FD173EC6CDBFEFF28F8E05657D1508
:10115000D5373745014081451305058037440140A7
:101160006D2D930404809305000826857D2D65DD93
:10117000130504809305F00F37440140792D930443
:1011800004809305000826854D2565DD1305048040
:101190009305F00F374401404925930404809305DB
:1011A00000082685592565DD130504809305F00F99
:1011B000374401409D2513040480930500082285CF
:1011C000AD2565DD05657D15B5376FF0AF88EFF2AC
:1011D0002F86B74401402A89014493840480B307D1
:1011E00089008385070091CDC205C18126853525FB
:1011F000930500082685152D65DD05041374F40F8D
:10120000F9BF6FF02F85EFF20F8193190501B744F5
:1012100001402A890D4493D9090193840480630E07
:101220000900CE852685D52B930500082685F52B4C
:1012300065DD7D141374F40F7DF06FF00F8101A054
:1012400001A001A001A001A001A001A001A001A096
:1012500001A001A001A001A001A001A001A001A086
:1012600001A001A001A001A001A001A001A001A076
:1012700001A001A001A001A001A001A001A001A066
:1012800001A001A001A001A001A001A001A001A056
:1012900001A001A001A001A001A001A001A001A046
:1012A00001A001A001A001A001A001A001A001A036
:1012B00001A001A001A001A001A001A001A001A026
:1012C00001A001A001A001A001A001A001A001A016
:1012D00001A001A001A001A001A001A001A001A006
:1012E00001A001A001A001A001A001A001A001A0F6
:1012F00001A001A001A001A001A001A097F1FF1F82
:1013000093814157177100201301C1CF17150000B9
:101310001305852797F5FF1F9385C5CE1386818119
:1013200063FAC5008322050023A05500110591052D
:10133000E3EAC5FE13858181938541896377B50012
:10134000232005001105E36DB5FEFD42739002BC3C
:10135000AD4273904280B76200009382820873A00E
:10136000023097F2FFFF938262CD93E232007390D6
:101370005230EFF09FCC97F2FFFF9382A2627390FE
:101380001234730020309C4513F7070113F8F7005F
:1013900001C7D8413368E8008E2113F7F50F39C330
:1013A00018418146854E3D4F930F80029302800481
:1013B000214E3396DE00B3F8C500631116039398EF
:1013C000260033131F011343F3FF3377E300B318F1
:1013D000180133E7E800639FF70550C98506E39AD3
:1013E000C6FD18C11307F00F6375B70454412146B9
:1013F000854E3D4F930F800293028004414EB39877
:10140000CE0033F715016392E80213172600011787
:101410003313EF001343F3FFB376D3003317E80021
:10142000D98E639DF701232A15010506E319C6FD30
:1014300054C18280E39457FA10C94DB7E39757FE21
:1014400023281501DDB708454205418182800CC97A
:1014500082804CC9828019C20CC982804CC98280AA
:101460004CC5828023A6A18282809387C182944347
:10147000182181E63C21920721A894430546639FE9
:10148000C6023C21103192076314D60093E707F897
:10149000B7E600E093F7F70FBA962380F64085464B
:1014A000935757003397E6005441A5C2938707042A
:1014B0008A07B7E600E0B69798C382808C438946D6
:1014C0006391D50214313C216365D6008A06B69734
:1014D0005DB79386E6038A06B69793F7F70F9207F0
:1014E00075B790438D46631CD60014313C2163646C
:1014F000D6008606E9BF9386C6078606F1BF9443E9
:101500009147E39EF6F81C31BDB7938707064DB7A8
:10151000371702405C439146B18B6385D700A146E3
:101520006382D706B7177A00938707201CC1371646
:1015300002405C4237070020130707009183BD8BF0
:10154000BA9794231C41B3D7D7005CC15442A182FF
:101550009D8ABA969422B3D6D70014C55442AD8260
:101560009D8A36971823B3D7E7005CC55842398364
:10157000937637001387818036971823B3D7E70215
:101580001CC982805C435843C166C983758FB7F616
:10159000FF1F83A6C670BD8B89071396160163488B
:1015A0000600C54601466392D702C94739A8894655
:1015B000638FD702BD46638ED702C146638ED702C2
:1015C000C54601466393D700C1471DEF3747024028
:1015D00003270780418B05C737177A0013070720B9
:1015E000B307F7021CC121D61C41858381B7014690
:1015F0006DBF0546B547D1BF0146BD47F9B737179F
:101600003D0013070790E9BFB7150240D855931660
:10161000F700D85563DF060411833D8B930617004E
:1016200037177A00130707203357D70218C1D4554C
:10163000A182BD8A8DE295463307D702058318C182
:1016400037170240585714413D8B050733D7E60240
:1016500018C1184171B785456394B600E546E9BFE6
:10166000BD456396B600D1463387E602C9BF8906F9
:10167000E5BF3D8B9306170037177A001307072045
:101680003357D702F1B799C5371702405C4B5D8DD0
:1016900048CB8280B7170240D84B1345F5FF798DB0
:1016A000C8CB828099C5371702401C4F5D8D08CF8B
:1016B0008280B7170240984F1345F5FF798D88CF88
:1016C000828099C5371702405C4F5D8D48CF82807C
:1016D000B7170240D84F1345F5FF798DC8CF8280E8
:1016E00037470240832707C011C593E747002320EF
:1016F000F7C08280ED9BE5BFB747024003A587C0D6
:101700008280B7470240938707C0DC437D8D333525
:10171000A0008280EFE2DFB11629F577FD17F58F83
:10172000F621DA257971D58F1EA95625FD77938785
:10173000379FF58FD6212A842EC6D58F9625D58F33
:10174000B625D58F5EA55E29C207C18393F7F7CF73
:10175000D98F5EA968086D3BB74701409387078022
:10176000B245631AF404A25756246547B387E702CB
:10177000C206C186984163D2060406075224420677
:10178000B3D7E702130740064186B3D6E702B3F7A3
:10179000E7029206635506028E0793872703B3D7A5
:1017A000E70213F77700B367D700C207C1831EA40F
:1017B00045616FE03FAA925745BF0A07C1B792073C
:1017C00093872703B3D7E702BD8BD58FF9BF91C5A8
:1017D0005E250967D98F5EA582805A25F977FD17A6
:1017E000F98FD5BF13F7F50F85471583B395B7006C
:1017F0006319F7009307C500984301CED98D8CC3B8
:101800008280894693074501E318D7FE93070501B7
:10181000E5B793C5F5FFF98DDDB793F5F51F4EA13B
:1018200082804A211375F51F82800A216D8D333520
:10183000A000828013F7F50F85461583B397B60095
:101840006311D7025A25F98F1A21014542074183B6
:1018500081CB0545A181B315B5006D8F3335E0000F
:10186000828089466314D7001A29F1BF5A29E1BF43
:10187000B707002083A7470737177A001307072009
:10188000B3D7E70293F7F70F2389F1821307803E5E
:10189000B387E7022398F1828280B7F700E0D8434C
:1018A0008146799BD8C303C721833306A70290CB17
:1018B000D4CB98431367070198C398431367170263
:1018C00098C3D843058B75DF9843799B98C3828072
:1018D000B7F700E0D8438146799BD8C303D701838B
:1018E0003306A70290CBD4CB98431367070198C364
:1018F00098431367170298C3D843058B75DF984345
:10190000799B98C38280EFE2BF921165797185451A
:10191000110502C602C8793393070020FC823714F0
:1019200001408D473ECC4C08E147130504803ECE74
:10193000EFF07FA593070040FC824C089147130508
:1019400004803ECEEFF03FA4F16737440140938717
:10195000072005463ED093055052B7070C001305EB
:1019600004803ED402D223160102AD3D93075013EA
:101970007C8685475C87680085473EC8EFF0FFAEF0
:101980000C101305048079338545130504808135D7
:1019900045616FE03F8C1387C1801C43938641896A
:1019A0003E95636BD500B78600209386068063E57D
:1019B000A60008C33E858280FD57EDBFEFE25F873A
:1019C000797185453705040002CA02CC02CE02D0E7
:1019D00002D202D402D602C602C8EFF09FCE8545DD
:1019E0002145EFF03FCC93070040FC8237140140C3
:1019F0008D473ECC4C08E147130504C03ECEEFF0C6
:101A00009F98856793870780FC824C089147130550
:101A100004C03ECEEFF03F9789673754004093876C
:101A200007583ED00C10B7070C00130504803ED4B5
:101A300002D223160102EFF0FFCD05469305505266
:101A4000130504804533930770237C8689475C87A0
:101A5000680085473EC8EFF05FA185451305048007
:101A6000BD3345616FE00FFF35713ECBB707008096
:101A700093C7F7FF3ECE3EC8C1779387872032C514
:101A800036C73AC942CD46CF3ECA938701812AC4A0
:101A90002ACC884334012E862C0086DE36C2F520FF
:101AA000A24723800700F6500D61828001114AC8C9
:101AB00003A9850022CC52C45AC006CE26CA4EC6FF
:101AC00056C22E84328B368A63E82609DE2513F748
:101AD000074849C304408C495848AA8AB389B4408E
:101AE0008D44B384E4020947B3C4E40213871600AB
:101AF0004E9763F3E400BA8493F70740ADCFA68511
:101B00005685EF00B0042A891DE1B14723A0FA00F1
:101B10005E247D5593E707045EA4F2406244D244FC
:101B20004249B249224A924A024B056182800C48DE
:101B30004E86BD2D5E2493F7F7B793E707085EA4A2
:101B40002328240144C84E99B3843441232024011E
:101B500004C4528963732A01528908404A86DA858F
:101B600009271C440145B38727411CC41C403E99EA
:101B7000232024015DB726865685EF00100A2A89A6
:101B800061F10C4856850D2749B7DE25717126D3C2
:101B90004AD14ECF06D722D552CD56CB5AC95EC7B1
:101BA00062C566C393F70708AA892E89B284B1C3B8
:101BB0009C49A1E39305000436C6492F2320A900C0
:101BC0002328A900B24615E1B14723A0F9007D55AD
:101BD000BA502A549A540A59FA496A4ADA4A4A4B7C
:101BE000BA4B2A4C9A4C4D61828093070004232AF9
:101BF000F90093070002A30CF1029307000302DA35
:101C0000230DF10236CE930B5002971A0000938AEF
:101C1000EA93054C294B26841C2099C363977709C6
:101C2000B30C9440638D0C00E6862686CA854E85EB
:101C3000B53DFD576308F518D256E69636DA1C20F6
:101C400063820718FD579304140002D002D63ED2D7
:101C500002D4A301010682DC8C20154656852D2B6B
:101C600013841400825721E513F7070109C71307EE
:101C70000002A301E10613F7870009C71307B002AA
:101C8000A301E10694201307A002638AE602B2577B
:101C9000268481462546182093051400130707FD66
:101CA0006372E6068DC63ED61DA00504B5B73305A2
:101CB00055413315AC00C98F3ED0A28471BF724725
:101CC00093064700184336CE634707023AD61820DA
:101CD0009307E002631DF70418309307A002631B0B
:101CE000F702F2470904138747009C433ACE63C1C9
:101CF00007023ED22DA83307E04093E727003AD6EB
:101D00003ED0F1B7B387670385462E84BA9761B793
:101D1000FD57C5B7050402D28146814725461820E4
:101D200093051400130707FD6374E606F9F20C200F
:101D30000D46171500001305E581B92911CD971738
:101D40000000938727811D8D93070004B397A70098
:101D5000025505045D8D2AD00C2019461705000098
:101D60001305857F93041400230CB102352125C58A
:101D700097E7FFFF9387072995E70257F247137705
:101D8000071009CF91073ECED257D2973EDA61B500
:101D9000B387670385462E84BA9751B79D07E19BA9
:101DA000A107D5B7780897060000938666D04A86C3
:101DB0000C104E8597000000E7000000FD572A8AAE
:101DC000E314F5FC8357C9007D5593F70704E391AD
:101DD00007E05255F5BB780897060000938646CD7C
:101DE0004A860C104E85012AD1BF797156CA9C498A
:101DF000BA8A984522D426D24ECE52CC06D64AD0A4
:101E00005AC85EC6AA892E84B284368A63D3E70094
:101E1000BA879CC00347340419C385079CC01C4083
:101E200093F7070281C79C4089079CC003290400DF
:101E300013796900631A0900130B9401FD5B5C447C
:101E40009840998F634CF9041C408346340493F7FF
:101E50000702B336D000A5EB13063404D2854E85B5
:101E6000829AFD576303F5041C4011469840998BF4
:101E7000544481446397C700B384E64063D30400AD
:101E800081441C4418486354F700998FBE9401495B
:101E900069047D5B63982405014509A885465A8637
:101EA000D2854E85829A631E75017D55B2502254AB
:101EB00092540259F249624AD24A424BB24B4561AE
:101EC00082800509ADBF3307D40013060003A301C8
:101ED000C7040347540493871600A2978906A38179
:101EE000E7049DBF85462286D2854E85829AE30E01
:101EF00065FB050945B7797122D426D24AD04ECE6A
:101F000006D652CC56CA5AC8B689942D9307900665
:101F10003289AA842E8413863504638DF60263E227
:101F2000D706930780056386F61863EDD700638EA6
:101F3000062093073004638EF60A930A24042301D3
:101F4000D404C9A0930730066385F60A93074006B8
:101F5000E395F6FE1C40084393F6070893054500F9
:101F6000C5C61C410CC363D807001307D002B307D2
:101F7000F040A301E404970600009386665E2947BB
:101F800065A8930700076382F61663E5D7029307F7
:101F9000E0066389F6189307F006E390F6FA0C4022
:101FA0001C4313F80508138547006307080608C398
:101FB0009C4385A893075007E383F6FE93078007A9
:101FC0006389F61293073007E399F6F61C43D04174
:101FD00081459386470014C383AA070056856D2A5E
:101FE00001C53305554148C05C401CC8A301040429
:101FF00061A81C43930A2404938647009C4314C39E
:102000002301F4048547D5B793F607041C410CC39C
:10201000B9DAC207C18781BF93F5050408C3C9D9DE
:102020009E231307F0066387E60E9706000093864B
:1020300026532947A30104044C400CC463C5050082
:1020400008406D9908C099E3B28A89CDB28AB3F588
:10205000E702FD1AB6958C212380BA00B3D5E702BA
:1020600063F0E70CA147631EF7001C40858B91CB02
:1020700058401C4863C7E70093070003A38FFAFE8C
:10208000FD1A3306564110C84E87CA867000A285D5
:102090002685EFF09FD57D5A631D450B7D55B250C7
:1020A000225492540259F249624AD24A424B456143
:1020B0008280A382D504970600009386664A0C406E
:1020C000084313F805081C411105630D080208C3F5
:1020D00013F7150001C793E505020CC04147B9FB92
:1020E0000C4093F5F5FD0CC0B1B79C4193E7070296
:1020F0009CC193078007A302F4049706000093860F
:10210000664775BF13F8050408C3E30308FCC2075C
:10211000C1837DBF9706000093868644214719BF7F
:10212000AE8735B794411C43CC4913F80608138594
:1021300047006306080008C39C438CC339A008C34A
:1021400093F606049C43F5DA8EA323280400B28A92
:1021500025BF14485686CA8526858299E30045F531
:102160001C40898B8DE7B2474844E35AF5F23E851F
:102170003DB785465686CA8526858299E30065F374
:10218000050A5C443247998FE345FAFEE9BF014AEC
:10219000930A94017D5BF5B793F5F50F2A966314C6
:1021A000C500014582801C21E38EB7FE0505C5BF31
:1021B000B3C7A5008D8B3307C50081E78D4763ED5D
:1021C000C700AA87637EE508942185078505A38F4C
:1021D000D7FEE3EBE7FE828093763500AA8789CAB3
:1021E000942185078505A38FD7FE93F63700C5BFD9
:1021F0009376C7FF138606FE63F0C70683A3050028
:1022000083A2450083AF850003AFC50083AE0501FF
:1022100003AE450103A3850183A8C501938545024B
:1022200023A0770003A8C5FF23A2570023A4F7012A
:1022300023A6E70123A8D70123AAC70123AC67007F
:1022400023AE17019387470223AE07FF75B790416E
:102250009107910523AEC7FEE3EBD7FEE3E6E7F671
:10226000828063F1A504B386C500637DD5029345E2
:10227000F6FF8147FD176393F50082803387F600F0
:10228000034807003387C7002A9723000701DDB7FB
:102290003387F50014233307F500850714A3E319EA
:1022A000F6FE82808147E5BFCDC183A7C5FF4111FE
:1022B00022C406C626C21384C5FF63D307003E941A
:1022C000AA84C92A938741839C4399EB2322040063
:1022D00023AA81822244B24026859244410165AA04
:1022E000637EF40014403307D4006396E7009843FC
:1022F000DC43369718C05CC0E1BFBA87D84319C326
:10230000E37DE4FE94433386D700631F86001040CC
:10231000B29694C33386D700E31EC7FA10435843DE
:10232000B29694C3D8C37DB76375C400B1479CC04F
:1023300055B71040B306C4006316D7001443584382
:10234000B29614C058C0C0C371B78280011126CAAA
:1023500093843500F19806CE22CC4AC84EC6A1041B
:10236000B14763F1F404B14463E0B4042A891D2247
:102370009387418398433A8431E0938781839C43D8
:1023800091E781454A85D52023ACA182A6854A855F
:10239000E928FD5963173507B1472320F9004A851D
:1023A000DD2829A0E3D204FCB1471CC10145F2405D
:1023B0006244D2444249B249056182801C40858F03
:1023C00063CE0702AD4663F6F6001CC03E9404C01F
:1023D00031A05C406312870223AAF1824A856528F6
:1023E0001305B4009307440061993307F54061D3A6
:1023F0003A94898F1CC065BF5CC3CDB7228740402B
:10240000A5BF130435007198E30385FCB305A44010
:102410004A85A128E31D35FB41B799E1B2853DB757
:10242000011122CC06CE26CA4AC84EC6328419EA09
:10243000A53D0149F24062444A85D2444249B2492D
:1024400005618280AE84AA8981282689E37485FE8D
:10245000A2854E85E53D2A8971DDA6852286EFF0AD
:102460003FD5A6854E858935F1B7411122C42A840E
:102470002E8523A8018806C6EFF0EFD1FD5763171C
:10248000F500938701899C4391C31CC0B24022444C
:10249000410182808280828083A7C5FF1385C7FFA8
:1024A00063D50700AA959C413E95828022060000D4
:1024B000340600005C06000088060000B00600003C
:1024C000CE060000F60600001407000032070000E8
:1024D000500700006E0700008C070000AA070000EC
:1024E00070302E74322E7478743D222564220000E0
:1024F0006D6F6465322E7431302E7478743D2225F0
:10250000642200006D6F6465332E74302E7478740D
:102510003D22256422000000E80E0000F60E0000B7
:10252000000F00000A0F0000140F00001E0F000033
:10253000280F0000320F00003C0F0000460F000083
:10254000500F00005A0F0000232D302B20000000F8
:10255000686C4C0065666745464700003031323391
:10256000343536373839414243444546000000008F
:1025700030313233343536373839616263646566F9
:042580000000000057
:102584000000000001020304010203040607080915
:102594000000000000000000000000000000000037
:1025A4000000000000000000000000000000000027
:1025B4000000000000000000000000000000000017
:1025C4000000000000000000000000000000000007
:1025D40000000000000000000000000000000000F7
:1025E40000000000000000000000000000000000E7
:1025F4000600000000A24A040204060804010020A8
:0826040010000020000000009E
:00000001FF
